:100000000C944D030C946A030C946A030C946A03D9
:100010000C946A030C946A030C946A030C946A03AC
:100020000C946A030C946A030C94C82C0C949A2DBB
:100030000C9434230C946A030C946A030C946A03A2
:100040000C946A030C946A030C946A030C946A037C
:100050000C946A030C949C230C946A030C946A031A
:100060000C946A030C946A030C946A030C946A035C
:100070000C946A030C946A030C946A030C946A034C
:100080000C946A030C946A030C946A030C946A033C
:100090000C946A030C946A030C946A030C946A032C
:1000A0000C946A030C946A030C946A03C003C303A0
:1000B000C603C903CC03CF03D2034A074C07570733
:1000C0004E07500752075407560759075B075D074D
:1000D00068075F0761076307650767076A075118C5
:1000E000511883188318C918E918421AA01A2B1935
:1000F000C819D919D919391AA01AA01A9A1A221B83
:10010000221B341B341B2B1B341B341B341B221BA4
:10011000221B301B341B341B301B0F2705271D27C8
:1001200076277D277D2776277D277D273E277D27FC
:10013000482752277D277D277D277D2776277D2706
:100140007D2776277D272B277D277D27622762271E
:100150006227622762276227622762276227782741
:100160007D270F2702277D277D277D277D277D2758
:100170007D277D277D277D277D2778277D277D2764
:1001800076277D2760276027602760276027602704
:100190006027602760277827072E2E2E202F2E2EEF
:1001A000202F7A2E9D2E202FF32E022F35002B008C
:1001B000E000E100010000001E00140004001D002A
:1001C00001534E001F001A0016001B0001512A00A7
:1001D0002000080007000600E20029622100150047
:1001E0000900190091684B00220017000A00050061
:1001F00000004A00F4002F0000002D0000004D0018
:10020000F500300000002E000000500023001C000C
:100210000B00110000004F00240018000D0010001A
:100220009068520025000C000E003600F200286293
:10023000260012000F003700F1002C0027001300E9
:1002400033003800F00051002D00310034002C0440
:10025000F3000000005C010001000100010000004B
:100260003A000100F2000100010001003B00F00033
:10027000F1000100010001003C000100F300010059
:10028000010001003D000100F40001000100010037
:100290003E000100F5000100000001000100010026
:1002A0000000010000000100010001000000010049
:1002B000000001003F0001005000010000000100AB
:1002C000400001005100AE00A90001004100010002
:1002D0005200AC00AA000100420001004F00AB0038
:1002E000A80001004300010001000100010001001D
:1002F00044004500010001000100000000047F3FB0
:100300001F643214643214783C1E1E140A05222322
:10031000252628292A2C2D2F3032333536383A3BE2
:100320003D3E4042434547494A4C4E505153555734
:10033000595A5C5E6062646668696B6D6F71737553
:1003400077797B7D7F81838587898A8C8E90929453
:1003500096989A9C9E9FA1A3A5A7A8AAACAEAFB160
:10036000B3B4B6B8B9BBBCBEBFC1C2C3C5C6C7C9AA
:10037000CACBCCCDCED0D1D2D2D3D4D5D6D7D7D864
:10038000D9D9DADADBDBDBDCDCDCDCDCDDDDDDDDB6
:10039000DCDCDCDCDCDBDBDBDADAD9D9D8D7D7D6BE
:1003A000D5D4D3D2D2D1D0CECDCCCBCAC9C7C6C575
:1003B000C3C2C1BFBEBCBBB9B8B6B4B3B1AFAEACBB
:1003C000AAA8A7A5A3A19F9E9C9A98969492908E66
:1003D0008C8A89878583817F7D7B79777573716F3F
:1003E0006D6B6968666462605E5C5A59575553511B
:1003F000504E4C4A4947454342403E3D3B3A3836D1
:10040000353332302F2D2C2A292826252322FFAAE6
:100410007F554000000000000000000000010101C5
:1004200001010101010102020202020202020303B0
:10043000030303030304040404040505050505067A
:100440000606060607070707080808080909090A33
:100450000A0A0B0B0B0C0C0C0D0D0D0E0E0E0F0FD4
:10046000101010111112121313141415151616175B
:1004700017181819191A1A1B1C1C1D1D1E1F1F20C6
:10048000212122232324252526272828292A2B2C0D
:100490002C2D2E2F30313132333435363738393A2E
:1004A0003B3C3D3E3F404142434445464748494B23
:1004B0004C4D4E4F50525354555758595A5C5D5EEF
:1004C000606163646567686A6B6C6E6F7172747685
:1004D00077797A7C7D7F8182848687898B8D8E90E7
:1004E00092949597999B9D9FA1A2A4A6A8AAACAE11
:1004F000B0B2B4B6B9BBBDBFC1C3C5C8CACCCED0FB
:10050000D3D5D7DADCDEE1E3E6E8EAEDEFF2F4F7A3
:10051000F9FCFF0403300000001603450072006779
:10052000006F0044006F007800200045005A000072
:100530000016034500720067006F0044006F0078EA
:1005400000200045005A0000000403090409023B92
:1005500000020100A0FA09040000010301010009E2
:1005600021110100012240000705810308000A094A
:10057000040100010300000009211101000122C053
:10058000000705820320000A120110010000000884
:10059000EDFE071301000102030105010902A1019B
:1005A00085020901A1000509190129051500250188
:1005B00095057501810295017503810105010930D9
:1005C00009311581257F9502750881060938158145
:1005D000257F950175088106050C0A3802158125CD
:1005E0007F950175088106C0C005010980A10185BC
:1005F000031601002603001A81002A830075109556
:10060000018100C0050C0901A10185041601002625
:100610009C021A01002A9C02751095018100C005F8
:10062000010906A1018505050719E029E71500253F
:1006300001950875018102050819012905950575BF
:100640000191029501750391010507190029EF1524
:1006500000250195F075018102C005010906A1017F
:10066000050719E029E715002501950875018102A4
:100670009501750881010508190129059505750180
:1006800091029501750391010507190029FF1500D5
:1006900026FF00950675088100C011241FBECFEF0C
:1006A000DAE0DEBFCDBF12E0A0E0B1E0ECE0F2E6C0
:1006B00002C005900D92A230B107D9F723E0A2E065
:1006C000B2E001C01D92A938B207E1F70E94EA2901
:1006D0000C9404310C94000080B38C7080BB81B307
:1006E000836F81BB089584B1807F84B985B1807F99
:1006F00085B98AB1837F8AB98BB1837F8BB93E98E4
:1007000046980895CF93E82F873080F580910601B1
:1007100090910701892B09F047C0CE2F64E670E065
:1007200080E40E94F5139093070180930601892BC2
:10073000D1F464E670E082E10E944C1490930701CA
:1007400080930601892B79F481E090E001C0880F45
:10075000CA95EAF764E670E080950E944C14909385
:10076000070180930601CF910C94A11490E0FC0145
:100770003797E730F105C0F4EA5AFF4F0C947C2F0D
:10078000209A289811C0219A29980EC0229A2A9856
:100790000BC0239A2B9808C0529A5A9805C0539AB6
:1007A0005B9802C03E9A4698CF910895CF938730C8
:1007B00008F03FC08091060190910701892B09F054
:1007C00041C064E670E080E40E94F5139093070155
:1007D00080930601892B11F0C0E027C064E670E029
:1007E00083E10E944C149093070180930601892BAA
:1007F00099F764E670E081E40E94F5139093070195
:1008000080930601892B41F784E690E00E947C14D6
:1008100097FF05C09093070180930601DDCFC82F95
:10082000C09510920701109206010E94A1148C2F0E
:100830000AC09FB18FB1807F869586959370892B72
:10084000809501C080E0CF9108950C94A8050E9486
:10085000300590E090930701809306010E94730396
:100860000E946C03A1E1B2E0E3E0F2E08EE08E0FC3
:1008700011921D928E13FCCF8EE00E94580B0C94A7
:1008800096060E94300590E0909307018093060140
:100890000E9473030E946C03E3E0F2E08EE08E0F8F
:1008A00011928E13FDCF0895CF92DF92EF92FF92B7
:1008B0000F931F93CF93DF938091060190910701CF
:1008C000892B91F0809102028F5F80930202811147
:1008D0000BC00E94300590E09093070180930601C1
:1008E000892B11F40E94C20491E1E92E92E0F92EC5
:1008F00008E112E0C0E0D12C87E0C82ECC0E8C2F8E
:100900000E9482038C2D0E9482038C2F0E94D603AA
:10091000F7019081981719F08083D1E001C0D0E0F1
:100920008C2D0E94D603F8019081981719F08083CE
:1009300081E001C080E0D82BDD2A0E947303CF5FE5
:10094000FFEFEF1AFF0A0F5F1F4FC730A9F62D2DDB
:100950004EE063E072E081E192E00E94CA0B0E94E7
:10096000A00681E0DF91CF911F910F91FF90EF9052
:10097000DF90CF900895E82FF0E0ED5FFD4F80818C
:100980000895089556985E9825982D9826982E9843
:1009900027982F988FEF90E090938900809388009C
:1009A00090938B0080938A0090938D0080938C00AD
:1009B000259A2D9A2FEF80E792E0215080409040B9
:1009C000E1F700C00000269A2E9A2FEF80E792E010
:1009D000215080409040E1F700C00000279A2F9AF4
:1009E0002FEF80E792E0215080409040E1F700C077
:1009F000000025982D982FEF80E792E0215080404D
:100A00009040E1F700C0000026982E982FEF80E775
:100A100092E0215080409040E1F700C0000027980C
:100A20002F9856985E9825982D9826982E98279856
:100A30002F98089589EA8093800089E0809381004F
:100A400024982C983F988AB18F7C8AB96E98479ADF
:100A50008BB180638BB9769A0E94C2040C94A7056F
:100A600080E290E0909307018093060180911F023D
:100A700081110EC00E94EF1381E080931F022FEFBF
:100A800083ED90E3215080409040E1F700C00000EA
:100A900064E670E080E40E94F51390930701809370
:100AA0000601892B09F04EC064E670E080E00E94E8
:100AB0004C149093070180930601892B09F042C0E2
:100AC00064E670E080E00E944C14909307018093EC
:100AD0000601892BB9F564E670E08FE30E944C149F
:100AE0009093070180930601892B61F50E94A11460
:100AF00064E670E080E40E94F51390930701809310
:100B00000601892BF9F464E670E08CE00E944C1435
:100B10009093070180930601892BA1F464E670E0AD
:100B200080E00E944C149093070180930601892B6A
:100B300049F464E670E08FE30E944C14909307013F
:100B4000809306010E94A1148091060108950895E2
:100B50006091CB027091CC028091CD029091CE0237
:100B60000E947C2156985E9825982D9826982E985C
:100B700027982F98813011F4259A2D9A08950F9374
:100B80001F93CF93DF939C013A9521153F4148F580
:100B9000EB018C0190FF03C080EEFB01099511FF72
:100BA00003C081EEFE01099512FF03C082EEFE0133
:100BB000099513FF03C083EEFE010995011510414D
:100BC00080F084EEFE01099585EEFE01099586EE22
:100BD000FE01099587EEFE01DF91CF911F910F91E4
:100BE0000994DF91CF911F910F910895877091E043
:100BF00001C0990F8A95EAF7892F0E94DF200C9493
:100C00001821877091E001C0990F8A95EAF7892F22
:100C10000E94DF200C941821877091E001C0990F89
:100C20008A95EAF7892F0E94E5200C941821877095
:100C300091E001C0990F8A95EAF7892F0E94E5207B
:100C40000C941821CF93DF93EC01805E91090897F3
:100C500010F0209719F461E076E002C066EF75E0CD
:100C6000CE010E94BF058C2FDF91CF910C945D16B1
:100C7000CF93DF93EC010E949617CE01805E91091D
:100C8000089710F0209719F467E176E002C06CE055
:100C900076E0CE01DF91CF910C94BF05CF93DF9327
:100CA000EC010E942206CE01DF91CF910C94380610
:100CB00081E0089581E008950C945A061F93CF9324
:100CC000DF9300D000D01F92CDB7DEB749835A839F
:100CD0002091590289819A81211112C0662349F01D
:100CE0000E944920182F682F89819A810E94EC1F49
:100CF00003C00E941C20182F69817A81812F04C0B3
:100D00000E94492069817A810F900F900F900F9077
:100D10000F90DF91CF911F910C94DB08FC01408173
:100D200051816281738184810C945E060E94CC2182
:100D3000811102C00E9452220E94240C0C941A05B8
:100D40000C942504282F2F7041F0822F90E02A3038
:100D500010F44D9608950697089587E290E008955F
:100D600008950C94B0060C94B10608950E94121BCD
:100D70000E94B5062FEF84E39CE021508040904014
:100D8000E1F700C000000C94C2230F931F93CF9390
:100D9000DF938C010E948E06EC01B8010E945C0674
:100DA000882309F4FEC1B801CE010E94980C882363
:100DB00009F4F7C1B801CE010E94AE13882309F4EB
:100DC000F0C1CA3CFCE5DF0741F4F80182818823C9
:100DD00009F4E7C10E94810FE4C1CB3C8CE5D80740
:100DE00008F012C1C33C9CE5D90761F4F801828187
:100DF000882309F4D6C10E94C9208272E1F00E94C2
:100E00009111CFC1C43CECE5DE07C0F0C63C9CE5C7
:100E1000D90709F4CAC008F0DCC0C43CFCE5DF0710
:100E200009F0CBC0F8018281882309F4BAC10E947D
:100E3000C920827221F30E948411B3C1C531FCE53F
:100E4000DF0708F07BC0C2308CE5D80708F452C039
:100E5000F8018281882309F454C00E94CC218111B9
:100E600002C00E9452220E94DF2190E090937703FB
:100E700080937603FE01E350FC45E231F10530F446
:100E8000E35AFF4F809176030C947C2F8091760378
:100E9000816027C0826025C0846023C0806121C03A
:100EA00080621FC080641DC080681BC08460886031
:100EB00018C08E7F16C08D7F14C08B7F12C08F7EAE
:100EC00010C08F7D0EC08F7B0CC08F770AC08B7FC8
:100ED000877F07C087FB222720F991E0922790FBAC
:100EE00087F980937603809176030E94E3210E9424
:100EF000121B57C1C1159CE5D90751F0C130DC4523
:100F000079F0C801DF91CF911F910F910C94580691
:100F1000F8018281882309F444C10E94B60641C1C8
:100F2000F8018281882309F43CC18091F802982F4E
:100F3000909590FB80F98093F80233C1C631FCE5AF
:100F4000DF0739F50E94C920282FF80182814091DE
:100F5000180150911901882379F02A7A91E009F457
:100F600090E090932002911102C069E201C065E314
:100F7000CA010E94B9220AC080912002811102C0D8
:100F800069E201C065E3CA010E94C4220E941821DF
:100F900008C1C23CDC4509F0B4CFF8018281882346
:100FA00009F4FFC00E949F11FCC0F80182818823D0
:100FB00009F4F7C00E94450FF4C0C53CDC4509F0B8
:100FC000A0CFF8018281882309F4EBC00E94380F7A
:100FD000E8C0F8018281C83CFCE5DF0731F48823D2
:100FE00009F4DFC00E94630FDCC0C93CDC4530F46B
:100FF000882309F4D6C00E94540FD3C0882309F473
:10100000D0C00E94720FCDC0C13DECE5DE0791F467
:10101000F8018281882309F4C4C00E94B70D8F3083
:1010200028F00E94B70D843108F405CF8FE00E94AC
:101030009411B7C0C23DFCE5DF0708F05AC0CD3CB3
:101040008CE5D80739F4F8018281882309F4A9C016
:1010500081E0EDCFCE3C9CE5D907C0F4CB3CECE57C
:10106000DE0741F4F8018281882309F49AC00E94C6
:10107000BF0D97C0CC3CDC4509F043CFF80182811D
:10108000882309F48EC00E94D00D8BC0F8018281A4
:10109000CF3CFCE5DF0771F4882309F482C00E948D
:1010A000B70D863028F00E94B70D883008F4C3CE03
:1010B00086E0BDCFC03DDC4570F4882309F471C0E3
:1010C0000E94B70D823028F00E94B70D853008F4D9
:1010D000B2CE82E0ACCF882309F463C00E94B70D82
:1010E000893028F00E94B70D8E3008F4A4CE89E034
:1010F0009ECFC53DECE5DE0739F4F80182818823F7
:1011000009F44FC083E293CFC63DFCE5DF0740F50D
:10111000F8018281C33DFCE5DF0729F4882309F447
:1011200040C088E184CFC43DDC4568F48823C9F120
:101130000E94B70D853128F00E94B70D873108F461
:101140007ACE85E174CF882361F10E94B70D893191
:1011500028F00E94B70D823208F46DCE89E167CF86
:10116000CD3DECE5DE0741F4F80182818823C9F02A
:1011700082E00E948B2A15C0CE3DFCE5DF0739F4E2
:10118000F8018281882369F00E9452220AC0CC3D76
:10119000DC4509F0B6CEF8018281882311F080E0A9
:1011A000E8CF80E0DF91CF911F910F91089580E00B
:1011B00090E00895089596E0799FF001112494E558
:1011C000899FE00DF11D1124E60FF11DEE0FFF1FA9
:1011D000E455FE4F859194910895880F991FFC0165
:1011E000E450FD4F859194910895CF93DF930E9431
:1011F000DB080E94B80AEC01811520E59207F0F5A2
:10120000811530E4930708F029C1883E910500F567
:10121000803E910508F0A8C1883A910570F4853A9E
:10122000910508F0A4C08130910509F49DC108F42E
:101230004EC1049708F098C14AC18F3B910508F44C
:10124000A1C0803C910508F442C1805C9109F9C0BD
:10125000811540E2940758F4C11581E0D80708F0E1
:1012600083C1C03FD10508F432C1D0657DC181156D
:1012700020E3920708F0E9C09F70E3C0811535E5CF
:10128000930708F044C0811544E5940708F0FDC0B9
:10129000C11582E5D80708F5C11521E5D20708F088
:1012A000E0C08C2F837021E030E002C0220F331F9A
:1012B0008A95E2F73C68CE0174E0969587957A9519
:1012C000E1F78370382BCF70C695C69540E2C49F76
:1012D000E0011124C22BD32B47C12C2F2695269534
:1012E000CE0183709927C115D34508F0BFC040E2F5
:1012F000249F90011124C1E0D0E002C0CC0FDD1F7B
:101300008A95E2F72C2B3D2BE901DC682DC1811574
:101310004AE59407A0F4C11589E5D80708F0C4C0D0
:10132000C11526E5D20708F4B5C0C11538E5D307C5
:1013300008F4CDC0DC2FCC27C06FD06A15C1811551
:101340009B4508F4C4C0C1158CE5D80708F4BCC09F
:10135000CE0190568115904208F0B9C08D2F8F7143
:101360000E94350BDD27D0628F71D82BFDC0853AE6
:10137000910509F4AFC0863A910509F0AEC0C2E804
:10138000D0E4F2C0883A910509F4AAC0893A9105DF
:1013900009F4A9C08A3A910509F4A8C08B3A9105CD
:1013A00009F4A7C08C3A910509F4A6C08B3B9105BE
:1013B00009F4A5C08C3B910509F4A4C08D3A9105B0
:1013C00009F4A3C0803B910509F4A2C08E3A9105AF
:1013D00009F4A1C08F3A910509F4A0C0813B9105A1
:1013E00009F49FC0823B910509F49EC0833B91059F
:1013F00009F49DC0843B910509F49CC0853B91058F
:1014000009F49BC0863B910509F49AC0873B91057E
:1014100009F499C0883B910509F498C0893B91056E
:1014200009F497C08D3B910509F496C08E3B910558
:1014300009F495C08A3B910509F494C0C0E0D4E456
:1014400093C00E94ED08EC018FC09927D3FF03C021
:10145000EC01D86C89C0EC01D06C86C0DF70D06A1A
:1014600083C0DC2FCC27C16FD06A7EC040E2249FAE
:1014700090011124C1E0D0E002C0CC0FDD1F8A959D
:10148000E2F7C22BD32BDA686FC0D82FCC27C46FFA
:10149000D06A6AC08C2F0E94350B8F71C82FD0E0A4
:1014A000DC2FCC27D06260C08C2F8F700E94350B50
:1014B00094E0D695C7959A95E1F7CF70D0E0DC2FF0
:1014C000CC27D069C82B50C0DD27D0664DC0C0E006
:1014D000D0E04AC0C1E8D0E447C0C3E8D0E444C08B
:1014E000C2EED4E441C0C9EED4E43EC0CAEED4E4B6
:1014F0003BC0C5EBD4E438C0C6EBD4E435C0C3EB85
:10150000D4E432C0C4EBD4E42FC0C7EBD4E42CC085
:10151000CCECD4E429C0CDECD4E426C0C3E8D5E4B7
:1015200023C0CAE8D5E420C0C2E9D5E41DC0C4E99F
:10153000D5E41AC0C1E2D6E417C0C3E2D6E414C0B1
:10154000C4E2D6E411C0C5E2D6E40EC0C6E2D6E4D9
:101550000BC0C7E2D6E408C0CFE6D4E405C0C0E7BC
:10156000D4E402C0CAE2D6E4CE01DF91CF9108955F
:101570008238910549F1B0F48133910509F458C0DE
:1015800048F48932910509F44EC08A32910509F474
:1015900054C008958533910509F440C089339105FD
:1015A00099F00895833E910529F138F4803E910524
:1015B00091F0823E9105A1F00895863E9105F9F0E3
:1015C000873E910531F108952091760320FD3AC0C0
:1015D00021FD38C008958091760380FD35C032C06A
:1015E0008091760382FF32C08091760384FD30C003
:1015F00083EE39C08091760382FD28C0F5CF8091BB
:10160000760383FF27C08091760384FD21C087EE97
:101610002AC08091760383FD1DC0F5CF80917603AB
:1016200085FD1AC01BC08091760385FD17C014C0CC
:101630008091760386FD14C015C08091760386FDE7
:1016400011C00EC080EE0FC089E30DC082EE0BC04A
:1016500080E009C086EE07C089E205C085E303C0CB
:101660008AE201C081E390E008959091760392FFB1
:101670000DC0282F2871283019F4877F846006C098
:10168000282F2471243011F48B7F886093FF0DC0C4
:10169000282F2871283119F4877E846106C0282FED
:1016A0002471243111F48B7E886194FD877E089526
:1016B000CF93C82F90E00E94822F809322029093B4
:1016C0002302282FFC019BEF8E2F821B8C1710F416
:1016D0009193FACFCF9108950F931F93CF93DF93F8
:1016E0001092210250912202E52FF091230240E056
:1016F000A62FB0E07BEFCAEFD0E09E2F951B981786
:10170000D0F490819B3FA9F0292F30E0691728F091
:101710008D01021B130B980106C08E01021B130BD7
:1017200098012A0F3B1F2530310514F0708301C04A
:1017300041E03196E2CF40932102DF91CF911F919A
:101740000F910895CF93DF931092240250912202BB
:1017500030912102DB01EC01E52FF091230290E0B2
:101760008E2F851B841778F489916C91681741F04E
:1017700060816B3F21F420838C9331E001C091E0C4
:1017800031961196EDCF3093210290932402DF9190
:10179000CF910895DF92EF92FF920F931F93CF9313
:1017A000DF9300D0CDB7DEB78C017B01D22E4A8308
:1017B0000E9466236AEF70E00E94542F282F8091C8
:1017C00021024A81882341F1622F842F29830E94BC
:1017D0006C0B29814A81DD2069F0B701C8010F90A7
:1017E0000F90DF91CF911F910F91FF90EF90DF90BD
:1017F0000C94A20B80912102882379F3809124021A
:101800008111EBCF0F900F90DF91CF911F910F912E
:10181000FF90EF90DF900895DD2081F3DECFCF932E
:10182000DF9397FF0DC0FB012281222349F0EC01D9
:101830000E943A0CCE019F770E947B0C0E94640CA0
:1018400081E0DF91CF9108958CE090E00E94BC3060
:1018500090E0A0E0B0E080932A0390932B03A09344
:101860002C03B0932D03089560912A038CE090E03F
:101870000C94D0300E94C92080932E030E94DC205B
:1018800080912A03813071F048F0823081F08430F9
:10189000A1F486EE0E94FE1788E10DC082EE0E9440
:1018A0005D160BC088E193E00E944E0606C082EEF2
:1018B0000E945D1687E50E94FE178FE39CE9019761
:1018C000F1F700C00000089580912A03813039F0BB
:1018D00040F0823031F0843051F488E206C08CE26E
:1018E00004C082EE0E94961702C00E94FE178091EB
:1018F0002E030C94D9200F931F93CF93DF938C0169
:10190000CCE0D0E0C8010C2E02C0969587950A94D1
:10191000E2F78F700E94A2060E94FE172497CC3F28
:101920008FEFD80779F7DF91CF911F910F9108952D
:101930000F931F93CF93DF93EC018B01FB01828107
:10194000882319F1C33EFCE5DF07C1F050F4C13E26
:10195000ECE5DE0781F0C23EFCE5DF07B1F481E093
:1019600010C0C43E8CE5D80759F0C53EECE5DE0753
:1019700061F484E006C010922A0305C082E001C031
:1019800083E080932A030E94340CB801CE01DF91DA
:10199000CF911F910F910C940F0CCF92DF92EF9289
:1019A000FF920F931F93CF93DF937B01282F382F44
:1019B000E82FF0E0F11006C0ED5EFB4F6491762F4A
:1019C000862F7BC00F2D10E046E0649FC0011124DC
:1019D000CFEFD0E0BE010E94542FAB016BEA64034D
:1019E000C001659F900D11248E0D911D8E0D911DCE
:1019F000982F990F890FBE01601B710B6E9FD0014C
:101A00006F9FB00D7E9FB00D11249B2F8F9DB00155
:101A10001124672F77277E01E61AF70AEE9EB001A0
:101A2000EF9E700DFE9E700D11246E01C81AD10834
:101A3000C09E7001C19EF00CD09EF00C11240F2DA1
:101A40001127C01BD10BCE9F8001CF9F100DDE9FB1
:101A5000100D1124812F4230510591F04CF44115A5
:101A60005105E1F041305105B9F4822F272F16C0FE
:101A70004430510569F044F04630510579F00CC00E
:101A8000822F2B2F912F0AC02B2F932F872F06C029
:101A90008B2F922F212F02C08B2F972FE22FF0E058
:101AA000ED5EFB4F7491E82FF0E0ED5EFB4F64912B
:101AB000E92FF0E0ED5EFB4F8491DF91CF911F9114
:101AC0000F91FF90EF90DF90CF9008950895CF93FE
:101AD000DF93762FE901682F842F0E94CD0C798344
:101AE00068838A83DF91CF91089580912F03282FF7
:101AF000269530E02115310519F48170826005C00A
:101B00002532310524F08170886480932F03089575
:101B100088E090E00C94C430CF93DF9300D000D0E5
:101B2000CDB7DEB7AB01BC0149835A836B837C839D
:101B30000E94750D49815A816B817C8188E090E01B
:101B40000F900F900F900F90DF91CF910C94E23097
:101B5000EFE2F3E083E0808311828FEF828383835F
:101B6000148260817181828193810C948C0D8091AB
:101B70002F0380FF02C08695089580E0089580912C
:101B80003303833018F48F5F8093330360912F0306
:101B90007091300380913103909132030C948C0D3D
:101BA00080913303882319F081508093330360912F
:101BB0002F037091300380913103909132030C9484
:101BC0008C0D60910C0170E080912F0380FF0AC0A2
:101BD0008091290224E0829FC00111248C5C9C4FDB
:101BE0000C94FF128091280290910B01891780F7C5
:101BF00024E0829FF0011124EC5CFC4F11821082E2
:101C000012828F5FF3CF90912F0390FF13C09091BA
:101C1000280220910B01921758F434E0939FF001B1
:101C20001124EC5CFC4F8183608342839F5FF3CF80
:101C30000C94E10D0895CF93DF9300D000D0CDB781
:101C4000DEB790912F0390FF0AC09E012F5F3F4F98
:101C50000E94670D4B8169818A810E94030E0F905B
:101C60000F900F900F90DF91CF910895CF93DF9356
:101C7000EC01EC81F0E0E25FFC4F4491EFE2F3E035
:101C8000628181810E941B0E8C818F5F8C83DF912A
:101C9000CF910895CF93DF93EC01EFE2F3E043811E
:101CA00062818C810E941B0E8C818F5F8C83DF91FF
:101CB000CF9108950F931F93CF93DF9300D000D05F
:101CC000CDB7DEB78C018091250281110AC09E013B
:101CD0002F5F3F4F4FEF6FEF0E94670D8A81809318
:101CE0002502F8018481813051F028F0823061F4BE
:101CF000409125020AC08091250240E007C0609112
:101D0000250240E080E003C040E080E060E00E9407
:101D1000030EF801248130E0C901019663E070E010
:101D20000E94682F84830F900F900F900F90DF9187
:101D3000CF911F910F910895AF92BF92CF92DF92F2
:101D4000EF92FF920F931F93CF93DF9300D000D0B9
:101D5000CDB7DEB7182FF62E042FE22E90912F0369
:101D600090FF6DC0E92FE695AE2FB0E0AE52BE4FAA
:101D70008C91809331029E7F923061F49E012F5F9F
:101D80003F4F812F0E94670D4B8169818A810E949C
:101D9000030E43C0823019F4009132033EC08630F6
:101DA00019F41091300339C08930D9F38931A9F57C
:101DB000E9518E2F8170D82EE695F0E0E25FFB4F5F
:101DC000A590B490C12CBB2460910A01C61618F5E9
:101DD000EC2DF0E0EA9DC001EB9D900DFA9D900D79
:101DE000112470E00E94542F812FD11002C0860F61
:101DF00001C0861B909128029F01290F311D220FDF
:101E0000331F220F331F2C5C3C4F402F6F2D0E943D
:101E1000670DC394D9CF0E94E10D10933003F09267
:101E2000310300933203EE2051F060912F03709143
:101E3000300380913103909132030E948C0D0F90FA
:101E40000F900F900F90DF91CF911F910F91FF9006
:101E5000EF90DF90CF90BF90AF900895EFE2F3E066
:101E60009181282F438162818CE0890F0C949C0E14
:101E700081E00C942E0FEFE2F3E09181282F438153
:101E8000628184EF890F0C949C0E81E00C943B0FCF
:101E9000EFE2F3E062812FEF620F08F46FEF282F7B
:101EA000438181810C949C0E81E00C94480FEFE2F9
:101EB000F3E062812FEF621B08F460E0282F43817A
:101EC00081810C949C0E81E00C94570FEFE2F3E0BB
:101ED00043812CE0420F08F44FEF282F628181816B
:101EE0000C949C0E81E00C94660FEFE2F3E04381CA
:101EF0002CE0421B08F440E0282F628181810C9481
:101F00009C0E81E00C94750F20E00C949C0EFF92C7
:101F10000F931F93CF93DF93EC01F12C0FEF10E0A1
:101F200060910A01F616E0F42091280230E02F0DAE
:101F3000311D220F331F220F331F2C5C3C4F70E0EA
:101F4000C8010E94682F962F8C81409132036091C6
:101F50003103F99E800D11240E94670DF394E0CFA8
:101F60000E94E10D9A818C8190FF02C08F5F01C0B9
:101F700081508C83DF91CF911F910F91FF90089535
:101F8000AF92BF92DF92EF92FF920F931F93CF9386
:101F9000DF93FC01828180FF02C00FEF01C001E0EE
:101FA00010E080910A011817D8F5A12EB12C80916C
:101FB0002802E501C80FD11DCC0FDD1FCC0FDD1F9E
:101FC000CC5CDC4F198218821A8224E0E22EF12CBC
:101FD000D12C809127028D0D87FF03C090910A01BB
:101FE000890F082E000C990BA816B90691F4809160
:101FF00032038E9DA0018F9D500D1124559547955C
:10200000559547959E0160913103809130030E9460
:10201000670DD00EF1E0EF1AF108D9F61F5FC1CFBE
:102020000E94E10D80912702013031F4811102C03C
:1020300080910A01815007C090E0019660910A01E9
:1020400070E00E94682F80932702DF91CF911F914B
:102050000F91FF90EF90DF90BF90AF9008950F9396
:102060001F93CF938091280290910B01891758F408
:1020700024E0829FF0011124EC5CFC4F118210825D
:1020800012828F5FF3CFC0E060910A01C61788F516
:102090000C2F10E070E0C8010E94682FE091280228
:1020A000E80F80912602082E000C990BF0E0EE0F4D
:1020B000FF1FEE0FFF1F08171907A4F02091090159
:1020C000022E000C330B2017310764F09F012C5CAB
:1020D0003C4F4091320360913103809130030E9464
:1020E000670D05C0EC5CFC4F118210821282CF5F3D
:1020F000CBCF0E94E10D2091080180912602820F32
:102100008093260290910901920F9093090119166C
:102110005CF4082E000C990B40910A0150E04150EC
:102120005109841795071CF0219520930801CF9140
:102130001F910F9108950F931F93CF93DF938C01FD
:10214000FC01848195810196817099279583848310
:10215000C0E0D5E580910A01C817F0F4209128026B
:1021600030E02C0F311D220F331F220F331F2C5C48
:102170003C4F4C2F4695F80184819581840F911D29
:10218000817040913203609131038D9F802D112425
:102190000E94670DCF5FDECFDF91CF911F910F912E
:1021A0000C94E10D0F931F93CF93DF93EC0100E0AC
:1021B00010E080910A01282F30E0021713071CF568
:1021C000909128029801290F311D220F331F220FF1
:1021D000331F2C5C3C4F869590E04C810817190703
:1021E0001CF4442331F002C0411103C0409132037A
:1021F00001C040E060913103809130030E94670D7F
:102200000F5F1F4FD6CF0E94E10D2C8130E02F5F72
:102210003F4F217033272C83DF91CF911F910F9176
:102220000895EFE2F3E080818E7F80836081718189
:10223000828193810E948C0D109232022FEF80E7F1
:1022400092E0215080409040E1F700C000000C94E3
:10225000E10D60912F03669570E04BE050E08DE05A
:1022600091E00E94AF30892B19F481E08093320213
:102270000E94662390932B0280932A0208959091E6
:102280002F0390FF35C09170811102C0926006C08B
:10229000853210F0986402C0880F982B90932F031A
:1022A000662351F060912F037091300380913103C8
:1022B000909132030E948C0D60912F03669570E01F
:1022C0004BE050E08DE091E00E94AF30892B19F097
:1022D0001092320202C00E94291181E080932D02E7
:1022E0004091320360913103809130030C94840F4C
:1022F0000895682F90912F03969581E0890F85327C
:1023000008F081E00C943F1181E00C947911682F62
:1023100090912F0396958FEF890F09F484E20C9426
:102320003F1181E00C94871161E00C943F11EFE2C2
:10233000F3E080818160808386950C949411809174
:102340002F0380FD0C9411110C94971160E00C94F4
:102350003F1180913002811133C08091F802816079
:102360008093F8020E94CC21811104C00E94522265
:102370000E94A80D0E94880D60932F037093300374
:1023800080933103909332036E7F61F40E94A80D15
:102390000E94880D60932F03709330038093310364
:1023A000909332030E94750D1092320280912F0398
:1023B00080FF03C086950E94A61181E080933002C1
:1023C00008950F931F93CF93DF9380913202882358
:1023D00009F48CC080913102E0912F03E695E81B4F
:1023E000E0932C02823049F4F0E0E65FFC4FE49188
:1023F000CE2FD0E006E31EE049C0863049F4F0E07D
:10240000E95FFC4FE491CE2FD0E00AE41EE03EC02D
:10241000893051F4E695F0E0EC5FFC4FE491CE2F6B
:10242000D0E007E81FE032C08F3051F4E695F0E0CD
:10243000EF5FFC4FE491CE2FD0E000EC1FE026C010
:10244000853149F4F0E0E250FD4FE491CE2FD0E029
:102450000FE210E11BC0883181F0833239F4ECEFD8
:10246000F2E0C591D4910AE51EE010C0843251F427
:10247000C4EFD1E002ED10E109C0C8EED3E00BE9F2
:1024800010E104C0C0EDD7E006E61DE080912D020A
:10249000882389F010922D020E9466239E012095C8
:1024A0003095820F931F90932B0280932A021092F3
:1024B0002F0210922E0280912A0290912B020E94EC
:1024C00072238C179D0790F0E0912A02F0912B0265
:1024D000CE0FDF1FD0932B02C0932A028AE292E034
:1024E000F801DF91CF911F910F910994DF91CF9166
:1024F0001F910F910895882319F05198599A02C09D
:10250000519A59985098589A95E09A95F1F7000089
:10251000509A589895E09A95F1F70000882311F0A9
:10252000519A599885E08A95F1F7000008958BB18A
:102530008C7F8BB95098589A5198599A85E08A9512
:10254000F1F7000008958AB18C7F8AB985E08A95F9
:10255000F1F70000519A599885E08A95F1F700004B
:10256000509A589885E08A95F1F7000008955098A0
:10257000589A85E08A95F1F700005198599A85E0BC
:102580008A95F1F700000895CF93DF93D82FC8E024
:102590008D2F80780E947B12DD0FC150C9F780E03B
:1025A0000E947B1285E08A95F1F7000085E08A950C
:1025B000F1F7000080E0DF91CF9108952BB1342F27
:1025C000309523233BB1432B3FB7F894FC01680FB0
:1025D000791FE617F70789F0819198E04BB9000061
:1025E00000C087FF2BB9880F000000C000C000C0EA
:1025F0002BB900C09A9591F7ECCF3FBF0895AF92E9
:10260000BF92CF92DF92EF92FF920F931F93CF93DF
:10261000DF938C01EB01CFB6D090BC00F894809191
:10262000BC008B7F8093BC000E9497120E94A31273
:1026300084E80E94C412CC0FDD1FCC0FDD1F78018F
:102640005801AC0EBD1EEA14FB0431F0F701819174
:102650007F010E94C412F7CF0E94B712CFBED09262
:10266000BC00579A40E8BE01C801DF91CF911F918D
:102670000F91FF90EF90DF90CF90BF90AF900C94B0
:10268000DE120F931F93CF93DF93C62FD42F022F09
:10269000FC0182818823C9F0609335020E94662381
:1026A000909334028093330280E28C0F883008F0DC
:1026B00050C0C77081E001C0880FCA95EAF7DF916A
:1026C000CF911F910F910C94111810913502161390
:1026D00030C080913302909134020E947223883C72
:1026E000910538F5C0E2CD0F1D17B9F080E2810FDA
:1026F000883040F4177081E001C0880F1A95EAF71E
:102700000E941818C83048F481E09D2F977001C0CE
:10271000880F9A95EAF70E941118802F0E94FE17E1
:10272000C830B8F4D77081E001C0880FDA95EAF7B5
:102730000AC080E28C0F883060F4C77081E001C06D
:10274000880FCA95EAF7DF91CF911F910F910C94F2
:102750001818DF91CF911F910F9108959C01CB0123
:10276000203F4CE53407F9F078F4283DFCE53F07BD
:10277000B9F0293D4CE5340711F1273D3C4531F5D1
:1027800026E241EE61EE1EC0223FFCE53F0799F0D4
:1027900070F0233F3C45D1F427E245EE66EE12C0CF
:1027A00027E245EE0EC026E241EE60EE0BC027E2C6
:1027B00045EE64EE07C026E241EE62EE03C028E279
:1027C00041E065EE0E94411380E00895FC018281A2
:1027D000882319F010923502089581E0089510922F
:1027E000B9008CE08093B8000895EF92FF920F93A8
:1027F0001F93CF93DF93182FEB011092BC0084EA54
:102800008093BC000E9466237C019091BC0097FDE0
:102810000EC0CF3F8FEFD807C1F30E9466238E19F9
:102820009F098C179D0788F38EEF9FEF2EC0909124
:10283000B900987F983041F09091B900987F90311D
:1028400019F08FEF9FEF21C01093BB0084E88093B5
:10285000BC000E9466238C019091BC0097FD0CC0C7
:10286000CF3F8FEFD807C1F30E946623801B910BE7
:102870008C179D0788F3D8CF8091B900887F883165
:1028800011F08034F1F680E090E0DF91CF911F915C
:102890000F91FF90EF9008950F931F93CF93DF93C5
:1028A000EB018093BB0084E88093BC000E94662308
:1028B0008C019091BC0097FD0EC0CF3F8FEFD807E1
:1028C000C1F30E946623801B910B8C179D0788F330
:1028D0008EEF9FEF0CC02091B900287F81E090E03F
:1028E000283211F480E090E0919581959109DF9173
:1028F000CF911F910F9108950F931F93CF93DF9363
:10290000EC0184E88093BC000E9466238C019091C6
:10291000BC0097FD0EC0CF3F8FEFD807C1F30E94D8
:102920006623801B910B8C179D0788F38EEF9FEF1A
:1029300003C08091BB0090E0DF91CF911F910F9178
:10294000089584E98093BC00089590933B0280939E
:102950003A020895E0913A02F0913B02309721F05B
:102960000190F081E02D099480E00895E0913A0211
:10297000F0913B02309799F020912901222359F0E0
:102980002091760327FF07C0DC012C9111962C9330
:10299000119725E02C930280F381E02D099408958E
:1029A000E0913A02F0913B02309739F022E0DC01ED
:1029B0002C930480F581E02D09940895209138022C
:1029C000309139028217930771F090933902809306
:1029D0003802E0913A02F0913B02309721F00680F4
:1029E000F781E02D09940895209136023091370245
:1029F0008217930771F09093370280933602E0912B
:102A00003A02F0913B02309721F00084F185E02DED
:102A10000994089585B7806885BF85B7806885BFAC
:102A20000895089508950C94121508950C941515A1
:102A30000E940A150E9411150C94131581E0089547
:102A40000E945D230E9427040E94F4230E94A91182
:102A50000C941615CF92DF92EF92FF920F931F9373
:102A6000CF93DF93CDB7DEB72B970FB6F894DEBFC9
:102A70000FBECDBF0E9454040E941E15811111C0CB
:102A80008FEF89838A831B820E9466238160782F5F
:102A90009D838C8349815A816B818D810E940E16A2
:102AA00056C08DE3C82E82E0D82E00E010E0E02E64
:102AB000802F0E94BB04F60141916F01F42EF8268D
:102AC00031F40F5F1F4F0E30110589F7D9CF909168
:102AD000F80291FF04C08B870E94C1048B8520E01F
:102AE00030E04F2D50E0922FBA01022E02C07595B2
:102AF00067950A94E2F760FF24C02E83EF8221E0FD
:102B000030E0690102C0CC0CDD1C9A95E2F790E040
:102B10008C219D21892B09F420E028870E946623BF
:102B20008160782F9A8789874E815F8168858A8541
:102B30000E940E16F801E35CFD4F8081C826C0821A
:102B400006C02F5F3F4F2630310569F6BACF0E948D
:102B5000872510913C020E94AA141817A1F00E9428
:102B6000AA1480933C022B960FB6F894DEBF0FBEDA
:102B7000CDBFDF91CF911F910F91FF90EF90DF902C
:102B8000CF900C94B3062B960FB6F894DEBF0FBE11
:102B9000CDBFDF91CF911F910F91FF90EF90DF900C
:102BA000CF900895DC0111962C9111978C91682F8C
:102BB00070E041E050E001C0440F8A95EAF71296B8
:102BC0008C91129730E0882329F080915B02882352
:102BD000E9F006C0F901E55BFD4F90819423B1F067
:102BE00086E0829FF001839FF00D1124E60FF71F0E
:102BF000EE0FFF1FE65DFE4F808191818D939C93C8
:102C0000F901E55BFD4F8081482B06C0F901E55BCA
:102C1000FD4F40958081482340830895CF93DF93F3
:102C2000CDB7DEB72B970FB6F894DEBF0FBECDBF82
:102C3000942F4F83252F588769877A878B874A85FA
:102C40005B85452B21F02F3F09F59F3FF9F4DE010D
:102C5000119686E0FD0111928A95E9F785E0FE0163
:102C6000379601900D928A95E1F749815A816B81DF
:102C70007C818D819E810E94BC1D2B960FB6F8949D
:102C8000DEBF0FBECDBFDF91CF910895CE01079675
:102C90000E94D215DCCFFC01808191810E948A20A4
:102CA00092959F70963041F480915B0291E0892764
:102CB00080935B0290935A020895CF93DF931F9203
:102CC000CDB7DEB7882309F42DC1682F8238C1F44F
:102CD0000E94AA1481FD26C169E380911801909198
:102CE00019010E94B9220E9418212FEF81EE94E071
:102CF000215080409040E1F700C0000069E319C016
:102D0000833811F50E94AA1480FD0CC163E58091FF
:102D10001801909119010E94B9220E9418212FEFE9
:102D200081EE94E0215080409040E1F700C0000027
:102D300063E580911801909119010E94C4220F90BF
:102D4000DF91CF910C9418218438C1F40E94AA1409
:102D500082FDE8C067E480911801909119010E94FA
:102D6000B9220E9418212FEF81EE94E0215080407B
:102D70009040E1F700C0000067E4DBCF8CEF860FE6
:102D8000813A70F4862F69830E94902769818111AE
:102D9000C9C080911801909119010E94B922CFCF2A
:102DA00080E2860F883048F4677081E001C0880FA8
:102DB0006A95EAF70E94CC20C2CF8BE5860F83305C
:102DC00088F4653A29F0663A31F083E890E005C06E
:102DD00081E890E002C082E890E00F90DF91CF910F
:102DE0000C94DE1488E5860F873108F091C0683AAC
:102DF00009F445C0693A09F445C06A3A09F445C086
:102E00006B3A09F445C06C3A09F445C06B3B09F4D0
:102E100045C06C3B09F445C06D3A09F445C0603BC0
:102E200009F445C06E3A09F445C06F3A09F445C04B
:102E3000613B09F445C0623B09F445C0633B09F4BA
:102E400045C0643B09F445C0653B09F445C0663B99
:102E500009F445C0673B09F445C0683B09F445C027
:102E6000693B09F445C06D3B09F445C06E3B09F46C
:102E700045C06A3B09F445C080E090E044C082EE62
:102E800090E041C089EE90E03EC08AEE90E03BC009
:102E900085EB90E038C086EB90E035C083EB90E0A6
:102EA00032C084EB90E02FC087EB90E02CC08CEC1C
:102EB00090E029C08DEC90E026C083E891E023C02B
:102EC0008AE891E020C082E991E01DC084E991E0A8
:102ED0001AC081E292E017C083E292E014C084E25B
:102EE00092E011C085E292E00EC086E292E00BC053
:102EF00087E292E008C08FE690E005C080E790E0AE
:102F000002C08AE292E00F90DF91CF910C94F4140A
:102F1000603F40F0862F0E948F240F90DF91CF9169
:102F20000C947C250F90DF91CF910895882309F4AC
:102F300064C0823879F40E94AA1481FF5EC069E3FC
:102F400080911801909119010E94B9220E941821C4
:102F500069E310C08338B1F40E94AA1480FF4DC009
:102F600063E580911801909119010E94B9220E9495
:102F7000182163E580911801909119010E94C422E3
:102F80000C941821843879F40E94AA1482FF35C069
:102F900067E480911801909119010E94B9220E9462
:102FA000182167E4E7CF9CEF980F913A10F4682F4F
:102FB000E1CF90E2980F983050F4877091E001C013
:102FC000990F8A95EAF7892F0E94D220D9CF9BE5E5
:102FD000980F933020F480E090E00C94DE1498E594
:102FE000980F973120F480E090E00C94F414803F27
:102FF00020F00E94F7240C947C250895CF93C82FCD
:103000000E945D16C93349F42FEF87EE93E02150FB
:1030100080409040E1F700C000008C2FCF910C94CD
:103020009617882321F00E94CC200C941821089533
:10303000882321F00E94D2200C9418210895BF9279
:10304000CF92DF92EF92FF920F931F93CF93DF9374
:103050007C01062FC72FFC01158112951F70D281AC
:10306000D1110E94EC200E94C220882379F0DD2338
:1030700069F080E2800F883048F082E00E9463218E
:103080000E94C22091E0B82EB92601C0B12CCC2EEE
:10309000C2948FE0C822D12CF601E159FF4F0C9465
:1030A0007C2F8C2F807FCF70882311F0C295C07F3A
:1030B000DD2399F0CC2309F4C7C180E2800F88306A
:1030C00010F0011104C08C2F0E94CC2003C08C2F63
:1030D0000E94DF200E941821B7C1802F0E949617FE
:1030E000CC2309F42DC280E2800F883010F001114A
:1030F00004C08C2F0E94D22003C08C2F0E94E52098
:103100000E9418211DC28C2F807FCF70803211F059
:10311000C295C07F002319F00130C9F024C0DD231F
:1031200071F0112341F0113031F40E94FF208C2BFB
:103130000E94052105C20E94FF208C2B0EC0112386
:1031400019F0113009F4FCC10E940E211EC0DD23CC
:1031500039F0123008F0F4C18C2F0E941118F0C120
:103160001111EEC112C0DD2319F01123A9F36CC1B6
:10317000112359F0093309F078C1FFEF27EE83E0FE
:10318000F15020408040E1F76EC18C2F0E9418184A
:10319000D7C18C2F86958695837090E0009719F0A3
:1031A000019761F0CDC1DD2321F0802F9C2F93701A
:1031B00002C080E090E00E94DE14CDC1DD2321F04A
:1031C000802F9C2F937002C080E090E00E94F41446
:1031D000C2C1DD23F9F0053F51F0063F71F0043F15
:1031E000A9F4809170039091710381600BC080916C
:1031F000700390917103826005C08091700390917B
:10320000710384609093710380937003802F0E94F8
:103210008F241EC0053F51F0063F71F0043FA9F412
:1032200080917003909171038E7F0BC08091700329
:10323000909171038D7F05C080917003909171030F
:103240008B7F9093710380937003802F0E94F724EB
:103250000E947C2580C18C2F837009F049C0D11158
:1032600076C1402F429546954770440F440F602F1A
:103270006F70862F90E0A0E0B0E0042E04C0880FAD
:10328000991FAA1FBB1F0A94D2F704FF10C00FE0BA
:1032900010E020E030E004C0000F111F221F331F98
:1032A0004A95D2F7009510952095309503C000E01F
:1032B00010E09801C695C695C370D0E0BC01CD0161
:1032C000602B712B822B932BC230D10559F0C33068
:1032D000D10559F0219719F00E94011F38C10E94B1
:1032E000EF1E35C10E94131F32C10E94ED1E2FC177
:1032F000DD2319F08C2F817001C08695882309F495
:1033000026C1402F429546954770440F440F602FC9
:103310006F70862F90E0A0E0B0E0042E04C0880F0C
:10332000991FAA1FBB1F0A94D2F704FF10C00FE019
:1033300010E020E030E004C0000F111F221F331FF7
:103340004A95D2F7009510952095309503C000E07E
:1033500010E09801C695C695C370D0E0BC01CD01C0
:10336000602B712B822B932BC230D10559F0C330C7
:10337000D10559F0219719F00E94C71FE8C00E949B
:10338000B51FE5C00E94D91FE2C00E94281FDFC000
:10339000CF70DD2339F08C2F0E944E1F802F0E94AA
:1033A0001118D5C0802F0E9418188C2F0E946F1FF3
:1033B000CEC0023FF9F028F4003F41F0013F99F000
:1033C0003FC0033FF1F0043F31F13AC0DD2339F053
:1033D0001111B6C08C2F8F710E94941FB1C0123092
:1033E00008F0AEC0F7CFDD2339F08C2F8F710E942B
:1033F0004E1FA6C0DD23C9F38C2F8F710E946F1F53
:103400009FC0DD2329F08C2F8F710E94391F98C037
:103410000E94341F95C0DD2349F0CF718C2F0E948C
:103420004E1F63E08C2F0E944E218AC081E00E94D3
:103430006321123008F484C082E00E94632180C0BE
:10344000DD2331F0112389F2802F0E945D1678C0B0
:10345000112391F2093349F49FEFE7EEF3E0915025
:10346000E040F040E1F700C00000802F0E94961776
:1034700067C04C2F4F70602FC7010E94D7080E9471
:10348000601E69C0023FB1F028F4003F49F0013FDF
:10349000F9F028C0043FB9F058F0053F71F022C0A0
:1034A000DD2309F447C090915B0281E0892708C0C1
:1034B00081E0D827D0935B023DC0D1113BC081E0B1
:1034C00080935B0237C0D11135C010925B0232C0CD
:1034D000DD2329F080915A02882329F329C0112382
:1034E00011F328C080915A021123C1F0882341F0C2
:1034F00090915B0281E0892780935B0210925A02CF
:10350000802FDD2319F00E945D1614C00E949617CB
:1035100086E0F70111928A95E9F70CC0882351F0F3
:10352000D11108C090915B0281E0892780935B02F2
:1035300010925A024C2F4F70602FC7010E94DA0878
:10354000F8E0CF1AD10824E0C216D10420F40E947A
:10355000AA140E94B306BB20D1F00E94BE2080FDB9
:1035600016C0F70112820E94B8200E944E1FC701A8
:103570000E94D11A0E94B820DF91CF911F910F9124
:10358000FF90EF90DF90CF90BF900C946F1FDF9172
:10359000CF911F910F91FF90EF90DF90CF90BF9050
:1035A00008950F931F93CF93DF93EC018881998146
:1035B0002B813C81232BB9F09F3F11F48F3F99F071
:1035C000CE010E94C506882371F0688179818A81C5
:1035D0000E9495208C010E94EB1F0E94EC1EB801F6
:1035E000CE010E941F18DF91CF911F910F91089576
:1035F0000E94EC200E94FC200E9418210E9422269A
:103600000E947C2580E090E00E94DE1480E090E043
:103610000C94F41480911801909119010E94CF220A
:103620000C94F81A0E94DC200C940A1BE92FE295F6
:10363000EF70F0E03297EE30F105B0F4E158FF4F53
:103640000C947C2F803F91F018F4883E68F40EC0F3
:10365000843F51F40BC0883E48F0813F29F406C0F6
:1036600093FB882780F9089580E0089581E008950C
:103670000E948A200E94161B0895CF93DF9300D0EA
:1036800000D01F92CDB7DEB70F900F900F900F9024
:103690000F90DF91CF910895CF93DF9300D000D0AA
:1036A00000D0CDB7DEB726960FB6F894DEBF0FBEBA
:1036B000CDBFDF91CF9108951F93CF93DF93C0913A
:1036C0005C0216E080915D02C81799F0D0E01C9F63
:1036D000F0011D9FF00D1124E25AFD4F40815181F0
:1036E00062817381848195810E944C1B2196C770F1
:1036F000E9CFDF91CF911F91089540918E025091B3
:103700008F0260919002709191028091920290914B
:1037100093020C944C1B8091930282958F7009F058
:1037200054C080919002882309F44FC080915C02BC
:10373000A0915D0260918E0270918F024091910282
:1037400050919202B6E08A1709F43FC090E041150B
:103750005105C1F17F3F11F46F3FA1F1B89FF00116
:10376000B99FF00D1124E25AFD4F218172132AC036
:103770002081621327C02281211124C0238134813A
:103780002417350710F421503109241B350B283C30
:103790003105C0F4209193022F7020612093930291
:1037A00026E0289FF001299FF00D1124ED59FD4FCF
:1037B00080818F70806180838EE892E00E94D11AB0
:1037C0000C945C1B01968770BECF0895CF92DF9258
:1037D000EF92FF920F931F93CF93DF93CDB7DEB796
:1037E00062970FB6F894DEBF0FBECDBF8C0185E0A7
:1037F000F801DE011D9601900D928A95E1F7D8013E
:103800004C9111965C91119712966C9112971396A8
:10381000CD90DC90149730918E0270918F02809140
:10382000910290919202009709F46BC17F3F19F4C5
:103830003F3F09F466C1E0909002EE2009F4C0C059
:1038400020919302C816D90628F0F601E81BF90B5F
:10385000CF0104C0809590958C0D9D1DFF24F3949D
:10386000883C910578F0F12C207F09F0C6C07C2DB2
:10387000D98AC88A89890E943D1B8EE892E00E94FD
:10388000D11AB1C0822F807F09F046C0751314C0D1
:10389000341312C0611110C02F7020612093930265
:1038A0000E947D1B8EE892E00E94D11A80919302C3
:1038B000D80115968C932EC0CD2819F15F3F11F4D5
:1038C0004F3FF9F0F62E61111CC080915C022091EF
:1038D0005D0236E0821709F45AC090E0389FF0018B
:1038E000399FF00D1124E25AFD4F7181571306C024
:1038F0007081471303C07281711103C001968770F4
:10390000E9CFF62E662309F427C1809193028160E6
:1039100080939302F12C20C1751308C0341306C0A4
:10392000611104C080919302D801C3C04D875E87A6
:103930008D859E856A8B0E94381B6A898823E1F1F8
:103940006623D1F120919302822F82958F7090E0AF
:10395000029774F080918E0290918F0298878F83E6
:103960001986DB86CA862C87CE0107960E94D11A5B
:1039700086E0F801AEE8B2E001900D928A95E1F799
:103980000E948B1B0E947D1BFF24F394E5C04D8792
:103990005E878D859E850E948A20292F22952F7013
:1039A00030E0223031050CF0CBC09F7009F0C5C06B
:1039B000805E883008F4D0C0C8010E94D11AE4CFDC
:1039C000C816D90608F453C0F601E81BF90BCF015D
:1039D000883C910508F450C0F12C7C2DD98AC88A06
:1039E00089890E943D1BEEE8F2E086E0DF011D922E
:1039F0008A95E9F70E947D1BAFC0751314C034137C
:103A000012C0611110C080919302F8018583C80132
:103A10000E94D11A86E0EEE8F2E0DF011D928A955D
:103A2000E9F7FE2C99C04D875E878D859E856A8B50
:103A30000E94381B6A89882309F4BECF662309F4E3
:103A4000BBCF20919302822F82958F7090E00297D6
:103A50000CF48ECF80918E0290918F029A8389838D
:103A60001B82DD82CC822E83CE0101967FCF809592
:103A700090958C0D9D1DACCFF62E662309F49CCF3E
:103A800075132EC034132CC02091930220FD1FC04B
:103A9000822F82958F70D9F0D80115962C931597A7
:103AA0008F3049F08F5F982F9295907F822F8F7083
:103AB000892B15968C93C8010E94D11A86E0F801D3
:103AC000AEE8B2E001900D928A95E1F793CF86E0DF
:103AD000F801AEE8B2E001900D928A95E1F73CC0A2
:103AE0004D875E878D859E850E94381B811140CF52
:103AF00080919302816080939302C8010E94D11A41
:103B00002BC0662309F458CF4D875E878D859E852F
:103B10000E94381BF82E882309F44ECF86E0F80166
:103B2000AEE8B2E001900D928A95E1F78EE892E05E
:103B30000E944B160E948B1B5DCF811139CF0CC0A8
:103B4000243031050CF038CF9F7009F431CFF801E3
:103B50009581907F09F02CCF8F2D62960FB6F89447
:103B6000DEBF0FBECDBFDF91CF911F910F91FF90B0
:103B7000EF90DF90CF9008951F93CF93DF93CDB751
:103B8000DEB72C970FB6F894DEBF0FBECDBF4F83C4
:103B9000588769877A878B879C87CE0107960E9412
:103BA000E61B882369F08F8198852A853B85232B26
:103BB000F1F19F3F09F063C08F3F09F060C037C04B
:103BC00086E0FE013796DE01119601900D928A95EE
:103BD000E1F76F817885EA85FB85309741F17F3F7A
:103BE00011F46F3F21F120915D0230E0C90101968F
:103BF0008770992740915C0250E08417950709F47B
:103C000047C069837A83FD83EC8396E0929FD0015D
:103C1000939FB00D1124A25ABD4FFE013196019021
:103C20000D929A95E1F780935D020E945C1B16E06D
:103C300080915C0290915D028917C1F1189FC001CB
:103C40001124825A9D4F0E94E61B882379F1E0914E
:103C50005C021E9FF0011124E25AFD4F4081518108
:103C600062817381848195810E944C1B80915C02EA
:103C700090E001968770992780935C02D9CF4F819D
:103C8000588569857A858B859C850E944C1BCFCF92
:103C90000E94121B10925D0210925C02EEE8F2E0AC
:103CA00086E0DF011D928A95E9F7C1CF2C960FB609
:103CB000F894DEBF0FBECDBFDF91CF911F91089565
:103CC000EF92FF920F931F93CF93DF938C01892B79
:103CD00009F46CC0F12CEE24E394E8012196F8017C
:103CE0008491843740F4843008F051C0813081F0F1
:103CF000823019F15BC0853709F444C0A8F19CE714
:103D0000980F903708F052C08F770E94961741C0E5
:103D10000E5F1F4FFE01C49180E28C0F883048F483
:103D2000C7708E2D01C0880FCA95EAF70E94EF2058
:103D300014C08C2F0E945D162DC00E5F1F4FFE0118
:103D4000C49180E28C0F883058F4C7708E2D01C06A
:103D5000880FCA95EAF70E94F5200E9418211AC020
:103D60008C2F0E94961716C00E5F1F4FFE01C49144
:103D7000CC2381F08FE99FE00197F1F700C00000AC
:103D8000C150F6CF0E5F1F4FFE01F49003C00E949A
:103D90005D168E018F2D882309F49FCFEFE9FFE098
:103DA0003197F1F700C000008150F5CFDF91CF913E
:103DB0001F910F91FF90EF90089508950C94DD1ED0
:103DC0000E94DE1E6093CF027093D0028093D102D6
:103DD0009093D2020C94F81A08950C94E01E0F935D
:103DE0001F930091CF021091D0022091D102309107
:103DF000D202602B712B822B932B1F910F910C946D
:103E0000E01E0F931F930091CF021091D0022091DA
:103E1000D1023091D20260237123822393231F9118
:103E20000F910C94E01E0F931F930091CF021091FD
:103E3000D0022091D1023091D202602771278227CF
:103E400093271F910F910C94E01E08950C94251F49
:103E50000E94261F6093CB027093CC028093CD0208
:103E60009093CE020C94F81A60E070E0CB010C94B1
:103E7000281F0F931F9341E050E060E070E08A013B
:103E80009B0104C0000F111F221F331F8A95D2F718
:103E9000C901B8011F910F910C94281F0F931F9314
:103EA00041E050E060E070E004C0440F551F661F21
:103EB000771F8A95D2F78091CB029091CC02A09186
:103EC000CD02B091CE028A019B01082B192B2A2B1F
:103ED0003B2BC901B8011F910F910C94281F0F9320
:103EE0001F9341E050E060E070E004C0440F551FB4
:103EF000661F771F8A95D2F740955095609570950B
:103F00008091CB029091CC02A091CD02B091CE02D3
:103F10008A019B01082319232A233B23C901B801E5
:103F20001F910F910C94281F0F931F9341E050E0B5
:103F300060E070E004C0440F551F661F771F8A952C
:103F4000D2F78091CB029091CC02A091CD02B0919A
:103F5000CE028A019B01082719272A273B27C9017E
:103F6000B8011F910F910C94281F0F931F9300917C
:103F7000CB021091CC022091CD023091CE02602B69
:103F8000712B822B932B1F910F910C94281F0F9351
:103F90001F930091CB021091CC022091CD02309161
:103FA000CE0260237123822393231F910F910C94DF
:103FB000281F0F931F930091CB021091CC022091E8
:103FC000CD023091CE0260277127822793271F915F
:103FD0000F910C94281F0895292F220F920F990FEB
:103FE000890FA82FA695A695A695877051E001C0C8
:103FF000550F8A95EAF785E0A89FD001112420E0AB
:1040000030E070E0F901EA0FFB1FEC56FD4F4081F4
:10401000CB01022E02C0969587950A94E2F7817033
:104020009927819584278523842780832F5F3F4F9D
:104030002530310539F70895292F220F920F990F56
:10404000890F682F669566956695982F977085E01D
:10405000689FB001112440E050E080E0FA01E60FD3
:10406000F71FEC56FD4F208130E0092E02C0369537
:1040700027950A94E2F721703327042E01C0220FFE
:104080000A94EAF7822B4F5F5F4F4530510531F7B5
:104090000895BF92CF92DF92EF92FF920F931F93FA
:1040A000CF93DF938C01C090CF02D090D002E090EC
:1040B000D102F090D2028091CB029091CC02A091DB
:1040C000CD02B091CE02C82AD92AEA2AFB2ACFE132
:1040D000D0E0D701C6010C2E04C0B695A7959795E0
:1040E00087950A94D2F780FF07C0BC2EB8018C2FA9
:1040F0000E94F508019719F4219758F7B12C8B2DE0
:10410000DF91CF911F910F91FF90EF90DF90CF90B3
:10411000BF900895CF93DF93EC010E944920BE0128
:104120000E94F508DF91CF9108951F93CF93DF93FD
:10413000EB0190915902992321F0CB010E948A2032
:1041400013C0882349F0CB010E944920182F682F03
:10415000CE010E94EC1F04C0CB010E941C20182F2E
:10416000BE01812F0E94F508DF91CF911F91089524
:104170008091D30285958595859508958091D30288
:10418000877008959091D302977081E009F480E0E0
:1041900008958091F70208959091F702892B8093FA
:1041A000F702089580959091F70289238093F70292
:1041B00008958093F70208951092F7020895909160
:1041C000F602892B8093F602089580959091F6026D
:1041D00089238093F60208951092F6020895909133
:1041E000F502892B8093F502089580959091F50250
:1041F00089238093F50208951092F5020895809125
:10420000D402089508950C9402219091D402981735
:1042100021F08093D4020C94032108958091D4025C
:10422000882329F01092D40280E00C940321089591
:10423000E0911801F09119018091F7028083E091DB
:104240001801F091190190818091F602892B8083E9
:10425000E0911801F091190190818091F502892B6C
:1042600080838091D402882381F0E0911801F0913D
:1042700019019081892B80838091180190911901F7
:104280000E94542281110E940E2180911801909168
:1042900019010C94B61408950C944B2198E0899F51
:1042A00090011124262B2093D3020E944E1F80914F
:1042B000D3028595859585950C944C211092D30257
:1042C00080E00C944C212091D3028095822380932E
:1042D000D302982F977079F430E0482F082E000C05
:1042E000550B2417350739F08595859585950E94DE
:1042F0006F1F0C945E210895CF92DF92EF92FF9290
:104300006C01EE24FF24C114D104E104F10421F076
:10431000C701B60120E101C020E0C72ED82EE92E4A
:10432000FF24C114D104E104F10419F0285FC7018E
:10433000B6016B017C0154E0F694E794D794C794DE
:104340005A95D1F7C114D104E104F10419F02C5F9E
:10435000C701B6016B017C0142E0F694E794D79463
:10436000C7944A95D1F7C114D104E104F10419F0BE
:104370002E5FC701B601DC01CB01B695A7959795D5
:104380008795892B8A2B8B2B09F02F5F822FFF902B
:10439000EF90DF90CF90089580E090E00E94CA30C7
:1043A00021E08D3E9E4F09F020E0822F089582E0AB
:1043B00090E00C94BC3083E090E00C94BC3084E03E
:1043C00090E00C94BC30682F84E090E00C94D030E6
:1043D000AB01BC018FE090E00C94E230AB01BC017A
:1043E00083E190E00C94E23060E070E0CB010C944B
:1043F000EE2160E070E0CB010E94E8210C94F421F2
:104400006DEE7EEF80E090E00E94EE3060E082E0B2
:1044100090E00E94D03060E083E090E00E94D030D5
:104420001092CF021092D0021092D1021092D202BA
:1044300060E084E090E00E94D03060E085E090E0B1
:104440000E94D03060E086E090E00E94D0306FEFB4
:1044500087E090E00E94D03040E050E0BA0188E070
:1044600090E00E94E23060E08DE090E00E94D03069
:1044700040E050E0BA0188E190E00E94E23060E064
:1044800087E190E00E94D03040E050E0BA018CE13A
:1044900090E00E94E23060E080E290E00E94D03044
:1044A0000C94F9210C940022FC0132968091290190
:1044B000882331F08091760387FF02C09EE101C01E
:1044C00096E080E0915028F021912223D9F38F5F6C
:1044D000F9CF08959C01FC0132969FEF80E0419155
:1044E000461789F09F3F19F4411101C0982F8F5F43
:1044F0008630A9F79F3F39F0F901E90FF11D97FDCB
:10450000FA95628308950895FC01329608962081F9
:10451000261301C010823196E817F907C1F70895F4
:10452000262F2695269526952E3168F4FC01E20F5C
:10453000F11D677021E030E001C0220F6A95EAF7B3
:104540008281282B22830895262F2695269526954D
:104550002E3170F4FC01E20FF11D677021E030E0B4
:1045600001C0220F6A95EAF72095828128232283D1
:10457000089520912901222329F02091760327FD17
:104580000C9490220C946A2220912901222329F074
:104590002091760327FD0C94A4220C948422209170
:1045A0002901FC013296222331F08091760387FFA6
:1045B00002C08EE101C086E0DF011D928A95E9F715
:1045C000089508950C94E1220E94E22280917C03D8
:1045D000843049F11092F90220E488E190E00FB6AE
:1045E000F894A895809360000FBE2093600080E04F
:1045F0000E94B3060E94E22283B7817F846083BF5A
:1046000083B7816083BF7894889583B78E7F83BF9B
:104610000FB6F894A895809160008861809360003F
:10462000109260000FBE08950895CF930E94410438
:104630000E9454040E941423C0E08C2F0E94BB04EB
:10464000811104C0CF5FCE30C1F701C081E0CF91AE
:10465000089508950C9429230E94121B0E94AA1405
:104660000E94B3060C942A231F920F920FB60F924A
:1046700011248F939F93AF93BF938091F90281117F
:1046800013C08091720390917303A0917403B09151
:1046900075034196A11DB11D80937203909373031E
:1046A000A0937403B0937503BF91AF919F918F91C5
:1046B0000F900FBE0F901F90189582E084BD93E07D
:1046C00095BD9AEF97BD80936E0008952FB7F8942B
:1046D0008091720390917303A0917403B09175035C
:1046E0002FBF0895CF92DF92EF92FF920F931F9307
:1046F0002FB7F89440917203509173036091740343
:10470000709175032FBF6A017B01EE24FF248C0199
:1047100020E030E0C016D106E206F30610F4415066
:1047200051099A01281B390BC9011F910F91FF9064
:10473000EF90DF90CF90089578941F920F920FB66C
:104740000F9211248F939F93AF93BF938091720325
:1047500090917303A0917403B09175030196A11D0C
:10476000B11D8093720390937303A0937403B0936D
:104770007503BF91AF919F918F910F900FBE0F90D6
:104780001F901895F89481E08093E00080E2809378
:10479000D800E9ECF0E010828FE19EE40197F1F798
:1047A00000C000001DBA109268001CBC10BE1FBAE9
:1047B00010927A0010926E0010926F0010927100A9
:1047C000109272001082ECEBF0E0108214B817B86F
:1047D0001AB81DB810BA108215B818B81BB81EB890
:1047E00011BA0C94003F08950E94CC21811102C09F
:1047F0000E9452220E94D7218093F8020E94DF215A
:1048000090E090937703809376030E94DB21682FDA
:1048100070E080E090E00C94ED1E8091FE0280FF3D
:104820000BC060911D0185E0689FB0011124759552
:104830006795759567952BC081FF09C060911D0133
:1048400085E0689FB00111247595679520C082FFAF
:1048500007C060911D0185E0689FB001112417C059
:104860009091FD029923D1F060911C01961788F771
:1048700020911D0185E0289F90011124929FA001A5
:10488000939F500D112470E0CA010E94682F603878
:10489000710540F46115710539F002C065E070E002
:1048A000862F08958FE7089581E008958091FE0294
:1048B00080FF08C060911B0170E075956795759544
:1048C000679521C081FF06C060911B0170E075955E
:1048D000679519C082FF04C060911B0170E010C091
:1048E0009091FD029923C1F060911A019617A0F7EB
:1048F00080911B01899FC001112470E00E94682FE4
:104900006038710528F46115710521F0862F08952E
:104910008FE7089581E0089561E070E0F4CF803F73
:1049200021F40E940D24819504C0813F29F40E9446
:104930000D24809302030895823F21F40E940D24E8
:10494000819504C0833F29F40E940D2480930103C4
:104950000895893F19F40E94562405C08A3F31F416
:104960000E94562481958093030308958B3F21F480
:104970000E945624819504C08C3F29F40E9456243D
:10498000809304030895843F21F4809100038160A3
:1049900017C0853F21F480910003826011C0863FDB
:1049A00021F48091000384600BC0873F21F4809143
:1049B0000003886005C0883F31F480910003806166
:1049C0008093000308958D3F21F48091FE02816061
:1049D0000BC08E3F21F48091FE02826005C08F3FA4
:1049E00029F48091FE0284608093FE020895803F46
:1049F00039F48091020387FF6CC01092020369C0F2
:104A0000813F29F4809102031816BCF362C0909193
:104A10000103823F29F497FF5CC01092010359C043
:104A2000833F19F41916CCF354C0893F41F48091A7
:104A3000030318160CF04DC0109203034AC08A3FBE
:104A400029F48091030387FF44C0F6CF8B3F39F4EC
:104A50008091040387FF3DC0109204033AC08C3F4D
:104A600029F4809104031816BCF333C0843F21F469
:104A7000809100038E7F17C0853F21F48091000351
:104A80008D7F11C0863F21F4809100038B7F0BC086
:104A9000873F21F480910003877F05C0883F31F470
:104AA000809100038F7E8093000313C08D3F21F41B
:104AB0008091FE028E7F0BC08E3F21F48091FE021A
:104AC0008D7F05C08F3F29F48091FE028B7F8093FC
:104AD000FE028091010381110EC0809102038111B9
:104AE0000AC080910303811106C0809104038111E3
:104AF00002C01092FD0208958FEF92E00E94D01440
:104B00000E9466239093FC028093FB0208951F93FA
:104B1000CF93DF938091FB029091FC020E9472235D
:104B2000AC019091FD02992321F020911E0130E00B
:104B300006C02091FA028AE0289F900111244217B2
:104B4000530708F47BC080910103C0910203D09108
:104B5000030310910403811107C0C1116BC0D1116F
:104B600069C0111167C06AC09F3F19F09F5F9093A1
:104B7000FD02181624F40E940D24809301038091F5
:104B8000010387FF05C00E940D24819580930103D6
:104B90001C1624F40E940D248093020380910203CA
:104BA00087FF05C00E940D248195809302033091F8
:104BB00001033323E1F0209102032223C1F045EBEE
:104BC0003403C0011124892F990F990B009709F420
:104BD00081E08093010335EB2303C0011124892F69
:104BE000990F990B009709F481E0809302031D1639
:104BF00024F40E945624809303038091030387FFCB
:104C000005C00E945624819580930303111624F455
:104C10000E945624809304038091040387FF05C0FB
:104C20000E945624819580930403DF91CF911F91B8
:104C30000C947C259F3F09F099CFA1CFDF91CF91B4
:104C40001F910895EFEFF2E086E0DF011D928A9553
:104C5000E9F71092FD021092FE020895833081F16F
:104C600028F4813059F08230D1F00895853009F46C
:104C700049C0B8F1863009F456C008958091FA020F
:104C8000262F30E0280F311D2F3F310524F4680F07
:104C90006093FA0208958FEF8093FA02089580914D
:104CA0001E01262F30E0280F311D2F3F310524F43F
:104CB000680F60931E0108958FEF80931E01089581
:104CC00080911D01262F30E0280F311D2F3F310527
:104CD00024F4680F60931D0108958FEF80931D01E8
:104CE000089580911C01262F30E0280F311D2F3FA1
:104CF000310524F4680F60931C0108958FEF8093B1
:104D00001C01089580911B01262F30E0280F311DD2
:104D10002F3F310524F4680F60931B0108958FEF36
:104D200080931B01089580911A01262F30E0280FEF
:104D3000311D2F3F310524F4680F60931A01089547
:104D40008FEF80931A010895833011F128F4813098
:104D500049F0823091F00895853081F120F186305C
:104D6000C1F108958091FA02681720F4861B8093A0
:104D7000FA0208951092FA02089580911E016817B0
:104D800020F4861B80931E01089510921E01089541
:104D900080911D01681720F4861B80931D010895E2
:104DA00010921D01089580911C01681720F4861B44
:104DB00080931C01089510921C01089580911B019D
:104DC000681720F4861B80931B01089510921B0125
:104DD000089580911A01681720F4861B80931A01A8
:104DE000089510921A0108950F931F93482F50E0D1
:104DF000FA013597EF33F10508F07FC0E357FF4F15
:104E00000C947C2F0E94522271C08091F802817F05
:104E10008E7F8093F80281E0809306036FC00E942A
:104E2000121B0FEF13ED20E3015010402040E1F77B
:104E300000C000000E94C22359C08091F802982F40
:104E40009095917090FB80F98093F80291114EC07B
:104E5000897F877F10C08091F80281FB222720F98B
:104E600091E0922790FB81F98093F8029923F1F168
:104E70008091F80281608093F80238C08091F80236
:104E800082FB222720F991E0922790FB82F9ECCF58
:104E90008091F80283FB222720F991E0922790FB72
:104EA00083F9E2CF0E94121B8091760387FB2227B1
:104EB00020F991E0922790FB87F98093760316C042
:104EC000895301C08D5141E050E060E070E08A01FB
:104ED0009B0104C0000F111F221F331F8A95D2F7B8
:104EE000C901B8010E94ED1E0E94121B81E006C09C
:104EF00061E070E080E090E0F5CF80E01F910F91DD
:104F0000089580E0089580E008958E518A3030F44D
:104F1000E82FF0E0E950FE4F8081089580E0089589
:104F2000CF93C82F80910603813071F018F0823042
:104F3000E1F184C00E94C920813151F00E94C92052
:104F4000823209F07DC004C00E94C920813149F439
:104F50008C2F0E948127811109C08C2F0E94F4267A
:104F600022C00E94C920823221F4F2CF81E090E079
:104F70001AC08C2F0E948327811114C0C43179F08C
:104F800048F4CB3079F0C03109F05EC082E0809304
:104F9000060308C0C93219F0C83321F055C0109279
:104FA000060352C081E0817051C0C93279F108F521
:104FB000C43161F1A0F4C73009F044C01092FA0284
:104FC00084E180931E01C0931D018CE380931C013A
:104FD00088E080931B0188E280931A0133C082EE3F
:104FE0008C0F863078F58C2F0E94852780930503DF
:104FF00029C0CE34E9F020F4CB3421F56AE013C0A7
:10500000C13579F0C235F1F461E00DC0809105033E
:10501000882319F01092050315C081E080930603E0
:1050200015C061E006C0809105030E942E260AC0CB
:105030006AE0809105030E94A42604C01092060332
:1050400080E004C081E002C080E0ADCFCF91089540
:105050008091270308950F931F93CF93DF9300D080
:105060001F92CDB7DEB78C010E949B2A823011F0CF
:10507000843021F584E089831B830A8382E0809356
:10508000E9008FEF9091E800815095FD06C095ED05
:105090009A95F1F700008111F5CF8091E80085FF26
:1050A0000DC040E050E063E070E0CE0101960E9448
:1050B000B82A8091E8008E778093E8000F900F90D7
:1050C0000F90DF91CF911F910F910895CF93DF93B0
:1050D00000D01F92CDB7DEB720917C03243031F58C
:1050E00023E02983805891099B838A8382E08093FF
:1050F000E9008FEF9091E800815095FD06C095ED95
:105100009A95F1F700008111F5CF8091E80085FFB5
:105110000DC040E050E063E070E0CE0101960E94D7
:10512000B82A8091E8008E778093E8000F900F9066
:105130000F90DF91CF910895CF93DF93EC010E9400
:105140009B2A823011F08430F9F482E08093E900E8
:105150009FEF8091E800915085FD06C085ED8A950E
:10516000F1F700009111F5CF8091E80085FF0CC0A8
:1051700040E050E066E070E0CE010E94B82A8091E5
:10518000E8008E778093E800DF91CF910895CF9368
:10519000DF93EC010E949B2A823011F08430D9F514
:1051A00080912901882339F08091760387FF03C01D
:1051B00060E282E002C068E081E08093E9008FEF66
:1051C0009091E800815095FD06C095ED9A95F1F714
:1051D00000008111F5CF8091E80085FF1CC080910F
:1051E0002901811105C040E050E068E070E003C093
:1051F00070E040E050E0CE010E94B82A8091E800C3
:105200008E778093E80080E2FE01A7E0B3E0019092
:105210000D928A95E1F7DF91CF91089580917B03FC
:10522000811109C00E944D2C0E94AA2C8091E2009D
:1052300084608093E200089510927B03089508959E
:1052400008950C942C2342E061EC81E00E94C72B6E
:1052500042E261EC82E00C94C72B80917E038330A4
:1052600009F460C030F4813071F0823009F499C0E3
:1052700008958A3009F485C08B3009F46BC08930F9
:1052800009F0A7C020C080917D03813A09F0A1C038
:105290008091E800877F8093E8008091810390915E
:1052A0008203892B21F460E287E093E003C060E091
:1052B00080E090E070E00E94032B8091E8008B7703
:1052C0008093E800089580917D03813209F081C0C8
:1052D0008091810390918203029708F07AC08091B7
:1052E000E800877F8093E8008091E80082FD05C098
:1052F00080917C038111F8CF6CC02091F3008091E4
:10530000F20090E0922B029729F48091F1008B7FBC
:10531000813021F48091F100809327038091E8008F
:105320008B7753C080917D03813A09F052C0809100
:10533000810390918203892B09F04BC08091E80092
:10534000877F8093E8008091E80080FFFCCF809108
:10535000290136C080917D038132D9F58091810386
:1053600090918203892BA9F58091E800877F809333
:10537000E8000E94FC2B80917F03809329010C940C
:10538000121B80917D03813221F58091E800877F97
:105390008093E8000E94FC2B809180038093280377
:1053A000089580917D03813AA1F48091E800877F80
:1053B0008093E8008091E80080FFFCCF8091280373
:1053C0008093F1008091E8008E778093E8000C9440
:1053D000FC2B089584B7877F84BF0FB6F894A895F7
:1053E00080916000886180936000109260000FBE21
:1053F00080E880936100109261000E9418150E945D
:105400004D2C0E94AA2C8091E20084608093E200DF
:1054100078940E94392F0E9420158FE191E00E941C
:10542000A51480917C03853069F40E94E422809168
:105430007A038823B1F30E941523882391F30E94F5
:10544000A22AEFCF0E942A150E94E111EACF0C9404
:10545000292A292F332723303105C9F064F421305C
:10546000310581F02230310509F04CC08BE390E02A
:105470002DE435E04BC02132310521F122323105D6
:1054800089F140C082E190E028E835E03FC09927EB
:105490008130910571F02CF4892BA1F5E9E4F5E058
:1054A0000DC08230910541F0039761F5E3E1F5E02D
:1054B00005C0E1E3F5E002C0E9E1F5E0849190E0A8
:1054C0009F0124C06115710541F061307105D1F46F
:1054D00089E090E028E735E019C089E090E02FE509
:1054E00035E014C06115710541F06130710551F46A
:1054F00080EC90E02AE935E009C080E490E02AE5FC
:1055000036E004C080E090E020E030E0FA01318332
:10551000208308950895CF93C82F0E948A2AC093AC
:105520002903CF91089580917C03843011F081E0AC
:10553000089582E0089580912903811102C00C949E
:10554000932A089580E189BD82E189BD09B400FEF6
:10555000FDCF8091D8008F7D8093D8008091E000AE
:1055600082608093E0008091E00081FDFCCF08958F
:10557000CF92DF92EF92FF920F931F93CF93DF931F
:10558000EC018B016A010E941B2C811133C0C114F4
:10559000D10439F0F60180819181081B190BC80FE5
:1055A000D91FE12CF12C0115110519F18091E800AA
:1055B00085FD16C08091E8008E778093E800C114C5
:1055C000D10449F0F60180819181E80EF91EF18243
:1055D000E08285E00FC00E941B2C882321F30AC0C3
:1055E00089918093F10001501109FFEFEF1AFF0A32
:1055F000DACF80E0DF91CF911F910F91FF90EF9074
:10560000DF90CF9008952091830330918403261773
:10561000370748F06115710539F42091E8002E77BD
:105620002093E80001C0B90140E061157105A9F1BE
:1056300020917C03222309F443C0253009F442C0A1
:105640002091E80023FD40C02091E80022FD32C0F7
:105650002091E80020FFE9CF4091F3002091F20073
:1056600030E0342BFC01CF016115710559F0283071
:10567000310540F481918093F100615071092F5FF1
:105680003F4FF1CF41E02830310509F040E0209153
:10569000E8002E772093E800C8CF4111C9CF0AC097
:1056A00080917C03882361F0853061F08091E8006F
:1056B00083FD0AC08091E80082FFF2CF80E0089568
:1056C00082E0089583E0089581E0089520918303A6
:1056D000309184032617370748F06115710539F4B6
:1056E0002091E8002E772093E80001C0B901FC0169
:1056F00020E06115710591F180917C03882309F404
:1057000040C0853009F43FC08091E80083FD3DC072
:105710008091E80082FD2FC08091E80080FFE9CFF2
:105720002091F3008091F20090E0922B61157105B9
:1057300059F08830910540F424912093F10031967E
:10574000615071090196F2CF21E0089709F020E03D
:105750008091E8008E778093E800CBCF2111CCCFE9
:105760000AC080917C03882361F0853061F08091CC
:10577000E80083FD0AC08091E80082FFF2CF80E05C
:10578000089582E0089583E0089581E00895982FB8
:10579000973058F59093E900981739F07091EC0024
:1057A0002091ED005091F00003C0242F762F50E09F
:1057B00021FF19C03091EB003E7F3093EB00309118
:1057C000ED003D7F3093ED003091EB003160309380
:1057D000EB007093EC002093ED005093F0002091CB
:1057E000EE0027FF07C09F5FD3CF8F708093E90043
:1057F00081E0089580E0089580917D0387FF11C0C6
:105800008091E80082FD05C080917C038111F8CF72
:1058100011C08091E8008B770BC080917C038823B6
:1058200049F08091E80080FFF8CF8091E8008E7702
:105830008093E80008952091E4003091E50095E61A
:105840004091EC00842F817040FF22C08091E800DD
:1058500080FD1CC080917C03882391F0853091F0FD
:105860008091EB0085FD10C04091E4005091E5006F
:105870004217530729F39A01915011F784E00895D4
:1058800082E0089583E0089581E0089580E008951E
:105890004091E80042FFDECF08950E94BB2C0E9499
:1058A000C32CE0EEF0E0808181608083E8EDF0E0E1
:1058B00080818F77808319BCA7EDB0E08C918E7FBB
:1058C0008C9380818F7E808310927B0308950F9349
:1058D0001F93CF93DF930E94BB2C0E94C32CC8ED73
:1058E000D0E088818F7788838881806888838881E9
:1058F0008F7D888319BC10927C03109278031092DC
:105900007A031092790300EE10E0F80180818B7F1A
:10591000808388818160888342E060E080E00E942B
:10592000C72BE1EEF0E080818E7F8083E2EEF0E035
:10593000808181608083808188608083F80180819C
:105940008E7F8083888180618883DF91CF911F91D2
:105950000F910895E8EDF0E080818F7E8083E7ED80
:10596000F0E080818160808384E082BF81E0809369
:105970007B030C94672CE8EDF0E080818E7F8083C0
:105980001092E20008951092DA001092E10008955A
:105990001F920F920FB60F9211242F933F934F93A4
:1059A0005F936F937F938F939F93AF93BF93EF9387
:1059B000FF938091E10082FF0BC08091E20082FFA3
:1059C00007C08091E1008B7F8093E1000E94382F17
:1059D0008091DA0080FF1FC08091D80080FF1BC03B
:1059E0008091DA008E7F8093DA008091D90080FF69
:1059F0000DC080E189BD82E189BD09B400FEFDCF03
:105A000081E080937C030E940E2905C019BC10928E
:105A10007C030E941C298091E10080FF19C08091C5
:105A2000E20080FF15C08091E2008E7F8093E2004B
:105A30008091E20080618093E2008091D8008062D2
:105A40008093D80019BC85E080937C030E942029B4
:105A50008091E10084FF30C08091E20084FF2CC07F
:105A600080E189BD82E189BD09B400FEFDCF80914E
:105A7000D8008F7D8093D8008091E1008F7E809345
:105A8000E1008091E2008F7E8093E2008091E2004D
:105A900081608093E20080917803882311F084E094
:105AA00007C08091E30087FD02C081E001C083E070
:105AB00080937C030E9421298091E10083FF29C00B
:105AC0008091E20083FF25C08091E100877F809371
:105AD000E10082E080937C03109278038091E100E2
